{
  "contractName": "AppRegistry",
  "abi": [
    {
      "constant": true,
      "inputs": [],
      "name": "_numberOfAccounts",
      "outputs": [
        {
          "name": "",
          "type": "uint256"
        }
      ],
      "payable": false,
      "stateMutability": "view",
      "type": "function"
    },
    {
      "constant": true,
      "inputs": [],
      "name": "_registrationDisabled",
      "outputs": [
        {
          "name": "",
          "type": "bool"
        }
      ],
      "payable": false,
      "stateMutability": "view",
      "type": "function"
    },
    {
      "constant": true,
      "inputs": [],
      "name": "_accountAdmin",
      "outputs": [
        {
          "name": "",
          "type": "address"
        }
      ],
      "payable": false,
      "stateMutability": "view",
      "type": "function"
    },
    {
      "constant": true,
      "inputs": [],
      "name": "_registryAdmin",
      "outputs": [
        {
          "name": "",
          "type": "address"
        }
      ],
      "payable": false,
      "stateMutability": "view",
      "type": "function"
    },
    {
      "inputs": [],
      "payable": false,
      "stateMutability": "nonpayable",
      "type": "constructor"
    },
    {
      "payable": true,
      "stateMutability": "payable",
      "type": "fallback"
    },
    {
      "constant": false,
      "inputs": [
        {
          "name": "name",
          "type": "string"
        },
        {
          "name": "accountAddress",
          "type": "address"
        }
      ],
      "name": "register",
      "outputs": [],
      "payable": false,
      "stateMutability": "nonpayable",
      "type": "function"
    },
    {
      "constant": true,
      "inputs": [],
      "name": "getNumberOfAccounts",
      "outputs": [
        {
          "name": "numberOfAccounts",
          "type": "uint256"
        }
      ],
      "payable": false,
      "stateMutability": "view",
      "type": "function"
    },
    {
      "constant": true,
      "inputs": [
        {
          "name": "name",
          "type": "string"
        }
      ],
      "name": "getAccountAddressOfName",
      "outputs": [
        {
          "name": "addr",
          "type": "address"
        }
      ],
      "payable": false,
      "stateMutability": "view",
      "type": "function"
    },
    {
      "constant": true,
      "inputs": [
        {
          "name": "addr",
          "type": "address"
        }
      ],
      "name": "getAccountAddressOfAddress",
      "outputs": [
        {
          "name": "accountAddress",
          "type": "address"
        }
      ],
      "payable": false,
      "stateMutability": "view",
      "type": "function"
    },
    {
      "constant": true,
      "inputs": [
        {
          "name": "addr",
          "type": "address"
        }
      ],
      "name": "getNameOfAccountAddress",
      "outputs": [
        {
          "name": "name",
          "type": "string"
        }
      ],
      "payable": false,
      "stateMutability": "view",
      "type": "function"
    },
    {
      "constant": true,
      "inputs": [
        {
          "name": "id",
          "type": "uint256"
        }
      ],
      "name": "getAccountAddressOfId",
      "outputs": [
        {
          "name": "addr",
          "type": "address"
        }
      ],
      "payable": false,
      "stateMutability": "view",
      "type": "function"
    },
    {
      "constant": false,
      "inputs": [],
      "name": "unregister",
      "outputs": [
        {
          "name": "unregisteredAccountName",
          "type": "string"
        }
      ],
      "payable": false,
      "stateMutability": "nonpayable",
      "type": "function"
    },
    {
      "constant": false,
      "inputs": [
        {
          "name": "name",
          "type": "string"
        }
      ],
      "name": "adminUnregister",
      "outputs": [],
      "payable": false,
      "stateMutability": "nonpayable",
      "type": "function"
    },
    {
      "constant": false,
      "inputs": [
        {
          "name": "registrationDisabled",
          "type": "bool"
        }
      ],
      "name": "adminSetRegistrationDisabled",
      "outputs": [],
      "payable": false,
      "stateMutability": "nonpayable",
      "type": "function"
    },
    {
      "constant": false,
      "inputs": [
        {
          "name": "accountAdmin",
          "type": "address"
        }
      ],
      "name": "adminSetAccountAdministrator",
      "outputs": [],
      "payable": false,
      "stateMutability": "nonpayable",
      "type": "function"
    },
    {
      "constant": false,
      "inputs": [],
      "name": "adminRetrieveDonations",
      "outputs": [],
      "payable": false,
      "stateMutability": "nonpayable",
      "type": "function"
    },
    {
      "constant": false,
      "inputs": [],
      "name": "adminDeleteRegistry",
      "outputs": [],
      "payable": false,
      "stateMutability": "nonpayable",
      "type": "function"
    }
  ],
  "bytecode": "0x6060604052341561000f57600080fd5b33600660006101000a81548173ffffffffffffffffffffffffffffffffffffffff021916908373ffffffffffffffffffffffffffffffffffffffff16021790555033600760006101000a81548173ffffffffffffffffffffffffffffffffffffffff021916908373ffffffffffffffffffffffffffffffffffffffff16021790555060006005819055506000600760146101000a81548160ff021916908315150217905550611852806100c36000396000f3006060604052600436106100e6576000357c0100000000000000000000000000000000000000000000000000000000900463ffffffff1680630cc04b55146100e85780631e59c529146101455780632c3cf7a8146101c1578063309e36ef14610273578063345e34161461029c5780633af41dc2146102b15780633bc36a2d146102c657806349f0c90d146102ef5780634a51a936146103285780634f1adefa1461035557806355d2cf91146103f25780639b6d86d614610455578063a6cd0c3b1461047a578063d5889525146104cf578063e79a198f14610524578063eb04aa83146105b2575b005b34156100f357600080fd5b610143600480803590602001908201803590602001908080601f0160208091040260200160405190810160405280939291908181526020018383808284378201915050505050509190505061062b565b005b341561015057600080fd5b6101bf600480803590602001908201803590602001908080601f0160208091040260200160405190810160405280939291908181526020018383808284378201915050505050509190803573ffffffffffffffffffffffffffffffffffffffff16906020019091905050610a3b565b005b34156101cc57600080fd5b6101f8600480803573ffffffffffffffffffffffffffffffffffffffff16906020019091905050610eb5565b6040518080602001828103825283818151815260200191508051906020019080838360005b8381101561023857808201518184015260208101905061021d565b50505050905090810190601f1680156102655780820380516001836020036101000a031916815260200191505b509250505060405180910390f35b341561027e57600080fd5b610286610f9b565b6040518082815260200191505060405180910390f35b34156102a757600080fd5b6102af610fa5565b005b34156102bc57600080fd5b6102c461107c565b005b34156102d157600080fd5b6102d9611113565b6040518082815260200191505060405180910390f35b34156102fa57600080fd5b610326600480803573ffffffffffffffffffffffffffffffffffffffff16906020019091905050611119565b005b341561033357600080fd5b61033b6111b9565b604051808215151515815260200191505060405180910390f35b341561036057600080fd5b6103b0600480803590602001908201803590602001908080601f016020809104026020016040519081016040528093929190818152602001838380828437820191505050505050919050506111cc565b604051808273ffffffffffffffffffffffffffffffffffffffff1673ffffffffffffffffffffffffffffffffffffffff16815260200191505060405180910390f35b34156103fd57600080fd5b6104136004808035906020019091905050611261565b604051808273ffffffffffffffffffffffffffffffffffffffff1673ffffffffffffffffffffffffffffffffffffffff16815260200191505060405180910390f35b341561046057600080fd5b6104786004808035151590602001909190505061129e565b005b341561048557600080fd5b61048d611317565b604051808273ffffffffffffffffffffffffffffffffffffffff1673ffffffffffffffffffffffffffffffffffffffff16815260200191505060405180910390f35b34156104da57600080fd5b6104e261133d565b604051808273ffffffffffffffffffffffffffffffffffffffff1673ffffffffffffffffffffffffffffffffffffffff16815260200191505060405180910390f35b341561052f57600080fd5b610537611363565b6040518080602001828103825283818151815260200191508051906020019080838360005b8381101561057757808201518184015260208101905061055c565b50505050905090810190601f1680156105a45780820380516001836020036101000a031916815260200191505b509250505060405180910390f35b34156105bd57600080fd5b6105e9600480803573ffffffffffffffffffffffffffffffffffffffff16906020019091905050611704565b604051808273ffffffffffffffffffffffffffffffffffffffff1673ffffffffffffffffffffffffffffffffffffffff16815260200191505060405180910390f35b600080600660009054906101000a900473ffffffffffffffffffffffffffffffffffffffff1673ffffffffffffffffffffffffffffffffffffffff163373ffffffffffffffffffffffffffffffffffffffff1614806106d75750600760009054906101000a900473ffffffffffffffffffffffffffffffffffffffff1673ffffffffffffffffffffffffffffffffffffffff163373ffffffffffffffffffffffffffffffffffffffff16145b15156106e257600080fd5b6002836040518082805190602001908083835b60208310151561071a57805182526020820191506020810190506020830392506106f5565b6001836020036101000a038019825116818451168082178552505050505050905001915050908152602001604051809103902060009054906101000a900473ffffffffffffffffffffffffffffffffffffffff16915060206040519081016040528060008152506000808473ffffffffffffffffffffffffffffffffffffffff1673ffffffffffffffffffffffffffffffffffffffff16815260200190815260200160002090805190602001906107d292919061176d565b5060006002846040518082805190602001908083835b60208310151561080d57805182526020820191506020810190506020830392506107e8565b6001836020036101000a038019825116818451168082178552505050505050905001915050908152602001604051809103902060006101000a81548173ffffffffffffffffffffffffffffffffffffffff021916908373ffffffffffffffffffffffffffffffffffffffff1602179055506004836040518082805190602001908083835b6020831015156108b65780518252602082019150602081019050602083039250610891565b6001836020036101000a038019825116818451168082178552505050505050905001915050908152602001604051809103902060009054906101000a900473ffffffffffffffffffffffffffffffffffffffff16905060006004846040518082805190602001908083835b6020831015156109465780518252602082019150602081019050602083039250610921565b6001836020036101000a038019825116818451168082178552505050505050905001915050908152602001604051809103902060006101000a81548173ffffffffffffffffffffffffffffffffffffffff021916908373ffffffffffffffffffffffffffffffffffffffff1602179055506000600360008373ffffffffffffffffffffffffffffffffffffffff1673ffffffffffffffffffffffffffffffffffffffff16815260200190815260200160002060006101000a81548173ffffffffffffffffffffffffffffffffffffffff021916908373ffffffffffffffffffffffffffffffffffffffff160217905550505050565b600073ffffffffffffffffffffffffffffffffffffffff166002836040518082805190602001908083835b602083101515610a8b5780518252602082019150602081019050602083039250610a66565b6001836020036101000a038019825116818451168082178552505050505050905001915050908152602001604051809103902060009054906101000a900473ffffffffffffffffffffffffffffffffffffffff1673ffffffffffffffffffffffffffffffffffffffff16141515610b0157600080fd5b60008060008373ffffffffffffffffffffffffffffffffffffffff1673ffffffffffffffffffffffffffffffffffffffff168152602001908152602001600020805460018160011615610100020316600290049050141515610b6257600080fd5b600073ffffffffffffffffffffffffffffffffffffffff16600360003373ffffffffffffffffffffffffffffffffffffffff1673ffffffffffffffffffffffffffffffffffffffff16815260200190815260200160002060009054906101000a900473ffffffffffffffffffffffffffffffffffffffff1673ffffffffffffffffffffffffffffffffffffffff16141515610bfc57600080fd5b6040825111151515610c0d57600080fd5b600760149054906101000a900460ff16151515610c2657fe5b816000808373ffffffffffffffffffffffffffffffffffffffff1673ffffffffffffffffffffffffffffffffffffffff1681526020019081526020016000209080519060200190610c7892919061176d565b5080600360003373ffffffffffffffffffffffffffffffffffffffff1673ffffffffffffffffffffffffffffffffffffffff16815260200190815260200160002060006101000a81548173ffffffffffffffffffffffffffffffffffffffff021916908373ffffffffffffffffffffffffffffffffffffffff160217905550806002836040518082805190602001908083835b602083101515610d305780518252602082019150602081019050602083039250610d0b565b6001836020036101000a038019825116818451168082178552505050505050905001915050908152602001604051809103902060006101000a81548173ffffffffffffffffffffffffffffffffffffffff021916908373ffffffffffffffffffffffffffffffffffffffff160217905550336004836040518082805190602001908083835b602083101515610dda5780518252602082019150602081019050602083039250610db5565b6001836020036101000a038019825116818451168082178552505050505050905001915050908152602001604051809103902060006101000a81548173ffffffffffffffffffffffffffffffffffffffff021916908373ffffffffffffffffffffffffffffffffffffffff1602179055508060016000600554815260200190815260200160002060006101000a81548173ffffffffffffffffffffffffffffffffffffffff021916908373ffffffffffffffffffffffffffffffffffffffff1602179055506005600081548092919060010191905055505050565b610ebd6117ed565b6000808373ffffffffffffffffffffffffffffffffffffffff1673ffffffffffffffffffffffffffffffffffffffff1681526020019081526020016000208054600181600116156101000203166002900480601f016020809104026020016040519081016040528092919081815260200182805460018160011615610100020316600290048015610f8f5780601f10610f6457610100808354040283529160200191610f8f565b820191906000526020600020905b815481529060010190602001808311610f7257829003601f168201915b50505050509050919050565b6000600554905090565b600660009054906101000a900473ffffffffffffffffffffffffffffffffffffffff1673ffffffffffffffffffffffffffffffffffffffff163373ffffffffffffffffffffffffffffffffffffffff1614151561100157600080fd5b600660009054906101000a900473ffffffffffffffffffffffffffffffffffffffff1673ffffffffffffffffffffffffffffffffffffffff166108fc3073ffffffffffffffffffffffffffffffffffffffff16319081150290604051600060405180830381858888f19350505050151561107a57600080fd5b565b600660009054906101000a900473ffffffffffffffffffffffffffffffffffffffff1673ffffffffffffffffffffffffffffffffffffffff163373ffffffffffffffffffffffffffffffffffffffff161415156110d857600080fd5b600660009054906101000a900473ffffffffffffffffffffffffffffffffffffffff1673ffffffffffffffffffffffffffffffffffffffff16ff5b60055481565b600660009054906101000a900473ffffffffffffffffffffffffffffffffffffffff1673ffffffffffffffffffffffffffffffffffffffff163373ffffffffffffffffffffffffffffffffffffffff1614151561117557600080fd5b80600760006101000a81548173ffffffffffffffffffffffffffffffffffffffff021916908373ffffffffffffffffffffffffffffffffffffffff16021790555050565b600760149054906101000a900460ff1681565b60006002826040518082805190602001908083835b60208310151561120657805182526020820191506020810190506020830392506111e1565b6001836020036101000a038019825116818451168082178552505050505050905001915050908152602001604051809103902060009054906101000a900473ffffffffffffffffffffffffffffffffffffffff169050919050565b60006001600083815260200190815260200160002060009054906101000a900473ffffffffffffffffffffffffffffffffffffffff169050919050565b600660009054906101000a900473ffffffffffffffffffffffffffffffffffffffff1673ffffffffffffffffffffffffffffffffffffffff163373ffffffffffffffffffffffffffffffffffffffff161415156112fa57600080fd5b80600760146101000a81548160ff02191690831515021790555050565b600760009054906101000a900473ffffffffffffffffffffffffffffffffffffffff1681565b600660009054906101000a900473ffffffffffffffffffffffffffffffffffffffff1681565b61136b6117ed565b6000600360003373ffffffffffffffffffffffffffffffffffffffff1673ffffffffffffffffffffffffffffffffffffffff16815260200190815260200160002060009054906101000a900473ffffffffffffffffffffffffffffffffffffffff1673ffffffffffffffffffffffffffffffffffffffff16141515156113f057600080fd5b6000600360003373ffffffffffffffffffffffffffffffffffffffff1673ffffffffffffffffffffffffffffffffffffffff16815260200190815260200160002060006101000a81548173ffffffffffffffffffffffffffffffffffffffff021916908373ffffffffffffffffffffffffffffffffffffffff1602179055506000803373ffffffffffffffffffffffffffffffffffffffff1673ffffffffffffffffffffffffffffffffffffffff1681526020019081526020016000208054600181600116156101000203166002900480601f0160208091040260200160405190810160405280929190818152602001828054600181600116156101000203166002900480156115415780601f1061151657610100808354040283529160200191611541565b820191906000526020600020905b81548152906001019060200180831161152457829003601f168201915b5050505050905060206040519081016040528060008152506000803373ffffffffffffffffffffffffffffffffffffffff1673ffffffffffffffffffffffffffffffffffffffff16815260200190815260200160002090805190602001906115aa92919061176d565b5060006002826040518082805190602001908083835b6020831015156115e557805182526020820191506020810190506020830392506115c0565b6001836020036101000a038019825116818451168082178552505050505050905001915050908152602001604051809103902060006101000a81548173ffffffffffffffffffffffffffffffffffffffff021916908373ffffffffffffffffffffffffffffffffffffffff16021790555060006004826040518082805190602001908083835b602083101515611690578051825260208201915060208101905060208303925061166b565b6001836020036101000a038019825116818451168082178552505050505050905001915050908152602001604051809103902060006101000a81548173ffffffffffffffffffffffffffffffffffffffff021916908373ffffffffffffffffffffffffffffffffffffffff16021790555090565b6000600360008373ffffffffffffffffffffffffffffffffffffffff1673ffffffffffffffffffffffffffffffffffffffff16815260200190815260200160002060009054906101000a900473ffffffffffffffffffffffffffffffffffffffff169050919050565b828054600181600116156101000203166002900490600052602060002090601f016020900481019282601f106117ae57805160ff19168380011785556117dc565b828001600101855582156117dc579182015b828111156117db5782518255916020019190600101906117c0565b5b5090506117e99190611801565b5090565b602060405190810160405280600081525090565b61182391905b8082111561181f576000816000905550600101611807565b5090565b905600a165627a7a72305820100742feee273ba70e701031f35d5794b3474e7c8526e515ccf04f58556c8c240029",
  "source": "pragma solidity ^0.4.11;\n\ncontract AppRegistry {\n\n\t// mappings to look up account names, account ids and addresses\n\tmapping (address => string) _accountAddressToAccountName;\n\tmapping (uint => address) _accountIdToAccountAddress;\n\tmapping (string => address) _accountNameToAccountAddress;\n\tmapping (address => address) _addressToAccountAddress;\n\tmapping (string => address) _accountNameToAddress;\n\n\tuint public _numberOfAccounts;\n\taddress public _registryAdmin;\n\taddress public _accountAdmin;\n\t// if a newer version of this registry is available, force users to use it\n\tbool public _registrationDisabled;\n\n\tuint constant MAX_NAME_SIZE = 64;\n\n\tmodifier onlyRegistryAdmin {\n\t\trequire(msg.sender == _registryAdmin);\n\t\t_;\n\t}\n\n\tmodifier onlyAdmin {\n\t\trequire(msg.sender == _registryAdmin || msg.sender == _accountAdmin);\n\t\t_;\n\t}\n\n\tfunction AppRegistry() public {\n\t\t_registryAdmin = msg.sender;\n\t\t_accountAdmin = msg.sender; // can be changed later\n\t\t_numberOfAccounts = 0;\n\t\t_registrationDisabled = false;\n\t}\n\n\tfunction() public payable { } // for donations :D\n\n\tfunction register(string name, address accountAddress) public {\n\t\trequire(_accountNameToAccountAddress[name] == address(0)); // name not registered\n\t\trequire(bytes(_accountAddressToAccountName[accountAddress]).length == 0); // account address not registered\n\t\trequire(_addressToAccountAddress[msg.sender] == address(0)); // user address not registered\n\t\trequire(bytes(name).length <= MAX_NAME_SIZE);\n\t\tassert(!_registrationDisabled);\n\t\t_accountAddressToAccountName[accountAddress] = name;\n\t\t_addressToAccountAddress[msg.sender] = accountAddress;\n\t\t_accountNameToAccountAddress[name] = accountAddress;\n\t\t_accountNameToAddress[name] = msg.sender;\n\t\t_accountIdToAccountAddress[_numberOfAccounts] = accountAddress;\n\t\t_numberOfAccounts++;\n\t}\n\n\tfunction getNumberOfAccounts() constant public returns (uint numberOfAccounts) {\n\t\treturn _numberOfAccounts;\n\t}\n\n\tfunction getAccountAddressOfName(string name) constant public returns (address addr) {\n\t\treturn _accountNameToAccountAddress[name];\n\t}\n\n\tfunction getAccountAddressOfAddress(address addr) constant public returns (address accountAddress) {\n\t\treturn _addressToAccountAddress[addr];\n\t}\n\n\tfunction getNameOfAccountAddress(address addr) constant public returns (string name) {\n\t\treturn _accountAddressToAccountName[addr];\n\t}\n\n\tfunction getAccountAddressOfId(uint id) constant public returns (address addr) {\n\t\treturn _accountIdToAccountAddress[id];\n\t}\n\n\tfunction unregister() public returns (string unregisteredAccountName) {\n\t\trequire(_addressToAccountAddress[msg.sender] != 0);\n\t\t_addressToAccountAddress[msg.sender] = address(0);\n\t\tunregisteredAccountName = _accountAddressToAccountName[msg.sender];\n\t\t_accountAddressToAccountName[msg.sender] = \"\";\n\t\t_accountNameToAccountAddress[unregisteredAccountName] = address(0);\n\t\t_accountNameToAddress[unregisteredAccountName] = address(0);\n\t}\n\n\tfunction adminUnregister(string name) public onlyAdmin{\n\t\taddress addr = _accountNameToAccountAddress[name];\n\t\t_accountAddressToAccountName[addr] = \"\";\n\t\t_accountNameToAccountAddress[name] = address(0);\n\t\taddress userAdress = _accountNameToAddress[name];\n\t\t_accountNameToAddress[name] = address(0);\n\t\t_addressToAccountAddress[userAdress] = address(0);\n\t}\n\n\tfunction adminSetRegistrationDisabled(bool registrationDisabled) public onlyRegistryAdmin {\n\t\t// currently, the code of the registry can not be updated once it is\n\t\t// deployed. if a newer version of the registry is available, account\n\t\t// registration can be disabled\n\t\t_registrationDisabled = registrationDisabled;\n\t}\n\n\tfunction adminSetAccountAdministrator(address accountAdmin) public onlyRegistryAdmin {\n\t\t_accountAdmin = accountAdmin;\n\t}\n\n\tfunction adminRetrieveDonations() public onlyRegistryAdmin {\n\t\t_registryAdmin.transfer(this.balance);\n\t}\n\n\tfunction adminDeleteRegistry() public onlyRegistryAdmin {\n\t\tselfdestruct(_registryAdmin); // this is a predefined function, it deletes the contract and returns all funds to the admin's address\n\t}\n}\n",
  "sourcePath": "/home/ramiro/Git/ethereum-projects/ethereal/contracts/AppRegistry.sol",
  "compiler": {
    "name": "solc",
    "version": "0.4.19+commit.c4cbbb05.Emscripten.clang"
  },
  "schemaVersion": "2.0.0",
  "updatedAt": "2018-03-04T14:44:00.512Z"
}