{
  "contractName": "UserAccount",
  "abi": [
    {
      "constant": true,
      "inputs": [],
      "name": "_adminAddress",
      "outputs": [
        {
          "name": "",
          "type": "address"
        }
      ],
      "payable": false,
      "stateMutability": "view",
      "type": "function"
    },
    {
      "constant": true,
      "inputs": [],
      "name": "_numberOfPosts",
      "outputs": [
        {
          "name": "",
          "type": "uint256"
        }
      ],
      "payable": false,
      "stateMutability": "view",
      "type": "function"
    },
    {
      "inputs": [],
      "payable": false,
      "stateMutability": "nonpayable",
      "type": "constructor"
    },
    {
      "payable": true,
      "stateMutability": "payable",
      "type": "fallback"
    },
    {
      "constant": false,
      "inputs": [
        {
          "name": "message",
          "type": "string"
        },
        {
          "name": "dataType",
          "type": "uint256"
        },
        {
          "name": "data",
          "type": "string"
        }
      ],
      "name": "post",
      "outputs": [],
      "payable": false,
      "stateMutability": "nonpayable",
      "type": "function"
    },
    {
      "constant": false,
      "inputs": [
        {
          "name": "postId",
          "type": "uint256"
        },
        {
          "name": "data",
          "type": "string"
        }
      ],
      "name": "editPost",
      "outputs": [],
      "payable": false,
      "stateMutability": "nonpayable",
      "type": "function"
    },
    {
      "constant": true,
      "inputs": [
        {
          "name": "postId",
          "type": "uint256"
        }
      ],
      "name": "getPost",
      "outputs": [
        {
          "name": "message",
          "type": "string"
        },
        {
          "name": "timestamp",
          "type": "uint256"
        },
        {
          "name": "dataType",
          "type": "uint256"
        },
        {
          "name": "data",
          "type": "string"
        },
        {
          "name": "lastEdited",
          "type": "uint256"
        }
      ],
      "payable": false,
      "stateMutability": "view",
      "type": "function"
    },
    {
      "constant": true,
      "inputs": [],
      "name": "getLastPost",
      "outputs": [
        {
          "name": "message",
          "type": "string"
        },
        {
          "name": "timestamp",
          "type": "uint256"
        },
        {
          "name": "dataType",
          "type": "uint256"
        },
        {
          "name": "data",
          "type": "string"
        },
        {
          "name": "lastEdited",
          "type": "uint256"
        },
        {
          "name": "numberOfPosts",
          "type": "uint256"
        }
      ],
      "payable": false,
      "stateMutability": "view",
      "type": "function"
    },
    {
      "constant": true,
      "inputs": [],
      "name": "getOwnerAddress",
      "outputs": [
        {
          "name": "adminAddress",
          "type": "address"
        }
      ],
      "payable": false,
      "stateMutability": "view",
      "type": "function"
    },
    {
      "constant": true,
      "inputs": [],
      "name": "getNumberOfPosts",
      "outputs": [
        {
          "name": "numberOfPosts",
          "type": "uint256"
        }
      ],
      "payable": false,
      "stateMutability": "view",
      "type": "function"
    },
    {
      "constant": false,
      "inputs": [
        {
          "name": "receiver",
          "type": "address"
        }
      ],
      "name": "adminRetrieveDonations",
      "outputs": [],
      "payable": false,
      "stateMutability": "nonpayable",
      "type": "function"
    },
    {
      "constant": false,
      "inputs": [],
      "name": "adminDeleteAccount",
      "outputs": [],
      "payable": false,
      "stateMutability": "nonpayable",
      "type": "function"
    }
  ],
  "bytecode": "0x6060604052341561000f57600080fd5b600060018190555033600260006101000a81548173ffffffffffffffffffffffffffffffffffffffff021916908373ffffffffffffffffffffffffffffffffffffffff160217905550610d97806100676000396000f3006060604052600436106100a4576000357c0100000000000000000000000000000000000000000000000000000000900463ffffffff1680630c4f65bd146100a657806337bbcaa0146100fb5780633e450fff1461012457806340731c241461013957806347f74172146102565780635c1cb691146102ff5780635c3e426c146103545780636d919eb21461038d578063c1eee7fd146103b6578063fa99654a146104cc575b005b34156100b157600080fd5b6100b9610532565b604051808273ffffffffffffffffffffffffffffffffffffffff1673ffffffffffffffffffffffffffffffffffffffff16815260200191505060405180910390f35b341561010657600080fd5b61010e61055c565b6040518082815260200191505060405180910390f35b341561012f57600080fd5b610137610566565b005b341561014457600080fd5b61015a60048080359060200190919050506105fd565b604051808060200186815260200185815260200180602001848152602001838103835288818151815260200191508051906020019080838360005b838110156101b0578082015181840152602081019050610195565b50505050905090810190601f1680156101dd5780820380516001836020036101000a031916815260200191505b50838103825285818151815260200191508051906020019080838360005b838110156102165780820151818401526020810190506101fb565b50505050905090810190601f1680156102435780820380516001836020036101000a031916815260200191505b5097505050505050505060405180910390f35b341561026157600080fd5b6102fd600480803590602001908201803590602001908080601f0160208091040260200160405190810160405280939291908181526020018383808284378201915050505050509190803590602001909190803590602001908201803590602001908080601f016020809104026020016040519081016040528093929190818152602001838380828437820191505050505050919050506107de565b005b341561030a57600080fd5b61031261091f565b604051808273ffffffffffffffffffffffffffffffffffffffff1673ffffffffffffffffffffffffffffffffffffffff16815260200191505060405180910390f35b341561035f57600080fd5b61038b600480803573ffffffffffffffffffffffffffffffffffffffff16906020019091905050610945565b005b341561039857600080fd5b6103a06109fb565b6040518082815260200191505060405180910390f35b34156103c157600080fd5b6103c9610a01565b604051808060200187815260200186815260200180602001858152602001848152602001838103835289818151815260200191508051906020019080838360005b8381101561042557808201518184015260208101905061040a565b50505050905090810190601f1680156104525780820380516001836020036101000a031916815260200191505b50838103825286818151815260200191508051906020019080838360005b8381101561048b578082015181840152602081019050610470565b50505050905090810190601f1680156104b85780820380516001836020036101000a031916815260200191505b509850505050505050505060405180910390f35b34156104d757600080fd5b610530600480803590602001909190803590602001908201803590602001908080601f01602080910402602001604051908101604052809392919081815260200183838082843782019150505050505091905050610be0565b005b6000600260009054906101000a900473ffffffffffffffffffffffffffffffffffffffff16905090565b6000600154905090565b600260009054906101000a900473ffffffffffffffffffffffffffffffffffffffff1673ffffffffffffffffffffffffffffffffffffffff163373ffffffffffffffffffffffffffffffffffffffff161415156105c257600080fd5b600260009054906101000a900473ffffffffffffffffffffffffffffffffffffffff1673ffffffffffffffffffffffffffffffffffffffff16ff5b610605610cb2565b600080610610610cb2565b60008086118015610622575060015486105b151561062d57600080fd5b6000808781526020019081526020016000206002018054600181600116156101000203166002900480601f0160208091040260200160405190810160405280929190818152602001828054600181600116156101000203166002900480156106d65780601f106106ab576101008083540402835291602001916106d6565b820191906000526020600020905b8154815290600101906020018083116106b957829003601f168201915b505050505094506000808781526020019081526020016000206000015493506000808781526020019081526020016000206003015492506000808781526020019081526020016000206004018054600181600116156101000203166002900480601f0160208091040260200160405190810160405280929190818152602001828054600181600116156101000203166002900480156107b65780601f1061078b576101008083540402835291602001916107b6565b820191906000526020600020905b81548152906001019060200180831161079957829003601f168201915b5050505050915060008087815260200190815260200160002060010154905091939590929450565b600260009054906101000a900473ffffffffffffffffffffffffffffffffffffffff1673ffffffffffffffffffffffffffffffffffffffff163373ffffffffffffffffffffffffffffffffffffffff1614151561083a57600080fd5b60f083511115151561084b57600080fd5b60a081511115151561085c57600080fd5b426000806001548152602001908152602001600020600001819055504260008060015481526020019081526020016000206001018190555082600080600154815260200190815260200160002060020190805190602001906108bf929190610cc6565b50816000806001548152602001908152602001600020600301819055508060008060015481526020019081526020016000206004019080519060200190610907929190610cc6565b50600160008154809291906001019190505550505050565b600260009054906101000a900473ffffffffffffffffffffffffffffffffffffffff1681565b600260009054906101000a900473ffffffffffffffffffffffffffffffffffffffff1673ffffffffffffffffffffffffffffffffffffffff163373ffffffffffffffffffffffffffffffffffffffff161415156109a157600080fd5b8073ffffffffffffffffffffffffffffffffffffffff166108fc3073ffffffffffffffffffffffffffffffffffffffff16319081150290604051600060405180830381858888f1935050505015156109f857600080fd5b50565b60015481565b610a09610cb2565b600080610a14610cb2565b600080600080600180540381526020019081526020016000206002018054600181600116156101000203166002900480601f016020809104026020016040519081016040528092919081815260200182805460018160011615610100020316600290048015610ac45780601f10610a9957610100808354040283529160200191610ac4565b820191906000526020600020905b815481529060010190602001808311610aa757829003601f168201915b505050505095506000806001805403815260200190815260200160002060000154945060008060018054038152602001908152602001600020600301549350600080600180540381526020019081526020016000206004018054600181600116156101000203166002900480601f016020809104026020016040519081016040528092919081815260200182805460018160011615610100020316600290048015610bb05780601f10610b8557610100808354040283529160200191610bb0565b820191906000526020600020905b815481529060010190602001808311610b9357829003601f168201915b50505050509250600080600180540381526020019081526020016000206001015491506001549050909192939495565b600260009054906101000a900473ffffffffffffffffffffffffffffffffffffffff1673ffffffffffffffffffffffffffffffffffffffff163373ffffffffffffffffffffffffffffffffffffffff16141515610c3c57600080fd5b60008210158015610c4e575060015482105b1515610c5957600080fd5b60a0815111151515610c6a57600080fd5b806000808481526020019081526020016000206004019080519060200190610c93929190610cc6565b5042600080848152602001908152602001600020600101819055505050565b602060405190810160405280600081525090565b828054600181600116156101000203166002900490600052602060002090601f016020900481019282601f10610d0757805160ff1916838001178555610d35565b82800160010185558215610d35579182015b82811115610d34578251825591602001919060010190610d19565b5b509050610d429190610d46565b5090565b610d6891905b80821115610d64576000816000905550600101610d4c565b5090565b905600a165627a7a723058201bb8cd8d0cfd9e58a5842dd75c799339b33c9fde9a5f6125bccc2f3882e2ceae0029",
  "source": "pragma solidity ^0.4.11;\n\ncontract UserAccount {\n\n\tmapping (uint => Post) _posts;\n\tuint public _numberOfPosts;\n\taddress public _adminAddress;\n\tuint constant MAX_DATA_SIZE = 160;\n\tuint constant MAX_POST_SIZE = 240;\n\n\t// data structure of a single post\n\tstruct Post {\n\t\tuint timestamp;\n\t\tuint lastEdited;\n\t\tstring message;\n\t\tuint dataType;\n\t\tstring data;\n\t}\n\n\tmodifier onlyAdmin {\n\t\trequire(msg.sender == _adminAddress);\n\t\t_;\n\t}\n\n\tfunction UserAccount() public {\n\t\t_numberOfPosts = 0;\n\t\t_adminAddress = msg.sender;\n\t}\n\n\tfunction() public payable { } // for donations :D\n\n\tfunction post(string message, uint dataType, string data) onlyAdmin public {\n\t\trequire(bytes(message).length <= MAX_POST_SIZE);\n\t\trequire(bytes(data).length <= MAX_DATA_SIZE);\n\t\t_posts[_numberOfPosts].timestamp = now;\n\t\t_posts[_numberOfPosts].lastEdited = now;\n\t\t_posts[_numberOfPosts].message = message;\n\t\t_posts[_numberOfPosts].dataType = dataType;\n\t\t_posts[_numberOfPosts].data = data;\n\t\t_numberOfPosts++;\n\t}\n\n  function editPost(uint postId, string data) onlyAdmin public {\n\t\trequire(postId >= 0 && postId < _numberOfPosts);\n\t\trequire(bytes(data).length <= MAX_DATA_SIZE);\n\t\t_posts[postId].data = data;\n\t\t_posts[postId].lastEdited = now;\n\t}\n\n\tfunction getPost(uint postId) constant public returns (string message, uint timestamp, uint dataType, string data, uint lastEdited) {\n\t\trequire(postId > 0 && postId < _numberOfPosts);\n\t\tmessage = _posts[postId].message;\n\t\ttimestamp = _posts[postId].timestamp;\n\t\tdataType = _posts[postId].dataType;\n\t\tdata = _posts[postId].data;\n\t\tlastEdited = _posts[postId].lastEdited;\n\t}\n\n\tfunction getLastPost() constant public returns (string message, uint timestamp, uint dataType, string data, uint lastEdited, uint numberOfPosts) {\n\t\tmessage = _posts[_numberOfPosts - 1].message;\n\t\ttimestamp = _posts[_numberOfPosts - 1].timestamp;\n\t\tdataType = _posts[_numberOfPosts - 1].dataType;\n\t\tdata = _posts[_numberOfPosts - 1].data;\n\t\tlastEdited = _posts[_numberOfPosts - 1].lastEdited;\n\t\tnumberOfPosts = _numberOfPosts;\n\t}\n\n\tfunction getOwnerAddress() constant public returns (address adminAddress) {\n\t\treturn _adminAddress;\n\t}\n\n\tfunction getNumberOfPosts() constant public returns (uint numberOfPosts) {\n\t\treturn _numberOfPosts;\n\t}\n\n\tfunction adminRetrieveDonations(address receiver) public onlyAdmin {\n\t\treceiver.transfer(this.balance);\n\t}\n\n\tfunction adminDeleteAccount() public onlyAdmin {\n\t\tselfdestruct(_adminAddress); // this is a predefined function, it deletes the contract and returns all funds to the owner's address\n\t}\n}\n",
  "sourcePath": "/home/ramiro/Git/ethereum-projects/ethereal/contracts/UserAccount.sol",
  "compiler": {
    "name": "solc",
    "version": "0.4.19+commit.c4cbbb05.Emscripten.clang"
  },
  "schemaVersion": "2.0.0",
  "updatedAt": "2018-03-02T12:29:03.182Z"
}