{
  "contractName": "UserAccount",
  "abi": [
    {
      "constant": true,
      "inputs": [],
      "name": "_adminAddress",
      "outputs": [
        {
          "name": "",
          "type": "address"
        }
      ],
      "payable": false,
      "stateMutability": "view",
      "type": "function"
    },
    {
      "constant": true,
      "inputs": [],
      "name": "_numberOfPosts",
      "outputs": [
        {
          "name": "",
          "type": "uint256"
        }
      ],
      "payable": false,
      "stateMutability": "view",
      "type": "function"
    },
    {
      "constant": true,
      "inputs": [],
      "name": "_name",
      "outputs": [
        {
          "name": "",
          "type": "string"
        }
      ],
      "payable": false,
      "stateMutability": "view",
      "type": "function"
    },
    {
      "inputs": [
        {
          "name": "name",
          "type": "string"
        }
      ],
      "payable": false,
      "stateMutability": "nonpayable",
      "type": "constructor"
    },
    {
      "payable": true,
      "stateMutability": "payable",
      "type": "fallback"
    },
    {
      "constant": false,
      "inputs": [
        {
          "name": "message",
          "type": "string"
        },
        {
          "name": "dataType",
          "type": "uint256"
        },
        {
          "name": "data",
          "type": "string"
        }
      ],
      "name": "post",
      "outputs": [],
      "payable": false,
      "stateMutability": "nonpayable",
      "type": "function"
    },
    {
      "constant": false,
      "inputs": [
        {
          "name": "postId",
          "type": "uint256"
        },
        {
          "name": "data",
          "type": "string"
        }
      ],
      "name": "editPost",
      "outputs": [],
      "payable": false,
      "stateMutability": "nonpayable",
      "type": "function"
    },
    {
      "constant": false,
      "inputs": [
        {
          "name": "name",
          "type": "string"
        }
      ],
      "name": "editName",
      "outputs": [],
      "payable": false,
      "stateMutability": "nonpayable",
      "type": "function"
    },
    {
      "constant": true,
      "inputs": [
        {
          "name": "postId",
          "type": "uint256"
        }
      ],
      "name": "getPost",
      "outputs": [
        {
          "name": "message",
          "type": "string"
        },
        {
          "name": "timestamp",
          "type": "uint256"
        },
        {
          "name": "dataType",
          "type": "uint256"
        },
        {
          "name": "data",
          "type": "string"
        },
        {
          "name": "lastEdited",
          "type": "uint256"
        }
      ],
      "payable": false,
      "stateMutability": "view",
      "type": "function"
    },
    {
      "constant": true,
      "inputs": [],
      "name": "getLastPost",
      "outputs": [
        {
          "name": "message",
          "type": "string"
        },
        {
          "name": "timestamp",
          "type": "uint256"
        },
        {
          "name": "dataType",
          "type": "uint256"
        },
        {
          "name": "data",
          "type": "string"
        },
        {
          "name": "lastEdited",
          "type": "uint256"
        },
        {
          "name": "numberOfPosts",
          "type": "uint256"
        }
      ],
      "payable": false,
      "stateMutability": "view",
      "type": "function"
    },
    {
      "constant": true,
      "inputs": [],
      "name": "getOwnerAddress",
      "outputs": [
        {
          "name": "adminAddress",
          "type": "address"
        }
      ],
      "payable": false,
      "stateMutability": "view",
      "type": "function"
    },
    {
      "constant": true,
      "inputs": [],
      "name": "getName",
      "outputs": [
        {
          "name": "name",
          "type": "string"
        }
      ],
      "payable": false,
      "stateMutability": "view",
      "type": "function"
    },
    {
      "constant": true,
      "inputs": [],
      "name": "getNumberOfPosts",
      "outputs": [
        {
          "name": "numberOfPosts",
          "type": "uint256"
        }
      ],
      "payable": false,
      "stateMutability": "view",
      "type": "function"
    },
    {
      "constant": false,
      "inputs": [
        {
          "name": "receiver",
          "type": "address"
        }
      ],
      "name": "adminRetrieveDonations",
      "outputs": [],
      "payable": false,
      "stateMutability": "nonpayable",
      "type": "function"
    },
    {
      "constant": false,
      "inputs": [],
      "name": "adminDeleteAccount",
      "outputs": [],
      "payable": false,
      "stateMutability": "nonpayable",
      "type": "function"
    }
  ],
  "bytecode": "0x606060405234156200001057600080fd5b60405162001267380380620012678339810160405280805182019190505060408151111515156200004057600080fd5b806003908051906020019062000058929190620000a9565b50600060018190555033600260006101000a81548173ffffffffffffffffffffffffffffffffffffffff021916908373ffffffffffffffffffffffffffffffffffffffff1602179055505062000158565b828054600181600116156101000203166002900490600052602060002090601f016020900481019282601f10620000ec57805160ff19168380011785556200011d565b828001600101855582156200011d579182015b828111156200011c578251825591602001919060010190620000ff565b5b5090506200012c919062000130565b5090565b6200015591905b808211156200015157600081600090555060010162000137565b5090565b90565b6110ff80620001686000396000f3006060604052600436106100c5576000357c0100000000000000000000000000000000000000000000000000000000900463ffffffff1680630c4f65bd146100c757806317d7de7c1461011c57806337bbcaa0146101aa5780633e450fff146101d357806340731c24146101e857806347f74172146103055780635c1cb691146103ae5780635c3e426c146104035780636d919eb21461043c578063abb2d04b14610465578063c1eee7fd146104c2578063d28d8852146105d8578063fa99654a14610666575b005b34156100d257600080fd5b6100da6106cc565b604051808273ffffffffffffffffffffffffffffffffffffffff1673ffffffffffffffffffffffffffffffffffffffff16815260200191505060405180910390f35b341561012757600080fd5b61012f6106f6565b6040518080602001828103825283818151815260200191508051906020019080838360005b8381101561016f578082015181840152602081019050610154565b50505050905090810190601f16801561019c5780820380516001836020036101000a031916815260200191505b509250505060405180910390f35b34156101b557600080fd5b6101bd61079e565b6040518082815260200191505060405180910390f35b34156101de57600080fd5b6101e66107a8565b005b34156101f357600080fd5b610209600480803590602001909190505061083f565b604051808060200186815260200185815260200180602001848152602001838103835288818151815260200191508051906020019080838360005b8381101561025f578082015181840152602081019050610244565b50505050905090810190601f16801561028c5780820380516001836020036101000a031916815260200191505b50838103825285818151815260200191508051906020019080838360005b838110156102c55780820151818401526020810190506102aa565b50505050905090810190601f1680156102f25780820380516001836020036101000a031916815260200191505b5097505050505050505060405180910390f35b341561031057600080fd5b6103ac600480803590602001908201803590602001908080601f0160208091040260200160405190810160405280939291908181526020018383808284378201915050505050509190803590602001909190803590602001908201803590602001908080601f01602080910402602001604051908101604052809392919081815260200183838082843782019150505050505091905050610a21565b005b34156103b957600080fd5b6103c1610b62565b604051808273ffffffffffffffffffffffffffffffffffffffff1673ffffffffffffffffffffffffffffffffffffffff16815260200191505060405180910390f35b341561040e57600080fd5b61043a600480803573ffffffffffffffffffffffffffffffffffffffff16906020019091905050610b88565b005b341561044757600080fd5b61044f610c3e565b6040518082815260200191505060405180910390f35b341561047057600080fd5b6104c0600480803590602001908201803590602001908080601f01602080910402602001604051908101604052809392919081815260200183838082843782019150505050505091905050610c44565b005b34156104cd57600080fd5b6104d5610ccb565b604051808060200187815260200186815260200180602001858152602001848152602001838103835289818151815260200191508051906020019080838360005b83811015610531578082015181840152602081019050610516565b50505050905090810190601f16801561055e5780820380516001836020036101000a031916815260200191505b50838103825286818151815260200191508051906020019080838360005b8381101561059757808201518184015260208101905061057c565b50505050905090810190601f1680156105c45780820380516001836020036101000a031916815260200191505b509850505050505050505060405180910390f35b34156105e357600080fd5b6105eb610eaa565b6040518080602001828103825283818151815260200191508051906020019080838360005b8381101561062b578082015181840152602081019050610610565b50505050905090810190601f1680156106585780820380516001836020036101000a031916815260200191505b509250505060405180910390f35b341561067157600080fd5b6106ca600480803590602001909190803590602001908201803590602001908080601f01602080910402602001604051908101604052809392919081815260200183838082843782019150505050505091905050610f48565b005b6000600260009054906101000a900473ffffffffffffffffffffffffffffffffffffffff16905090565b6106fe61101a565b60038054600181600116156101000203166002900480601f0160208091040260200160405190810160405280929190818152602001828054600181600116156101000203166002900480156107945780601f1061076957610100808354040283529160200191610794565b820191906000526020600020905b81548152906001019060200180831161077757829003601f168201915b5050505050905090565b6000600154905090565b600260009054906101000a900473ffffffffffffffffffffffffffffffffffffffff1673ffffffffffffffffffffffffffffffffffffffff163373ffffffffffffffffffffffffffffffffffffffff1614151561080457600080fd5b600260009054906101000a900473ffffffffffffffffffffffffffffffffffffffff1673ffffffffffffffffffffffffffffffffffffffff16ff5b61084761101a565b60008061085261101a565b6000808610158015610865575060015486105b151561087057600080fd5b6000808781526020019081526020016000206002018054600181600116156101000203166002900480601f0160208091040260200160405190810160405280929190818152602001828054600181600116156101000203166002900480156109195780601f106108ee57610100808354040283529160200191610919565b820191906000526020600020905b8154815290600101906020018083116108fc57829003601f168201915b505050505094506000808781526020019081526020016000206000015493506000808781526020019081526020016000206003015492506000808781526020019081526020016000206004018054600181600116156101000203166002900480601f0160208091040260200160405190810160405280929190818152602001828054600181600116156101000203166002900480156109f95780601f106109ce576101008083540402835291602001916109f9565b820191906000526020600020905b8154815290600101906020018083116109dc57829003601f168201915b5050505050915060008087815260200190815260200160002060010154905091939590929450565b600260009054906101000a900473ffffffffffffffffffffffffffffffffffffffff1673ffffffffffffffffffffffffffffffffffffffff163373ffffffffffffffffffffffffffffffffffffffff16141515610a7d57600080fd5b60f0835111151515610a8e57600080fd5b60a0815111151515610a9f57600080fd5b42600080600154815260200190815260200160002060010181905550426000806001548152602001908152602001600020600001819055508260008060015481526020019081526020016000206002019080519060200190610b0292919061102e565b50816000806001548152602001908152602001600020600301819055508060008060015481526020019081526020016000206004019080519060200190610b4a92919061102e565b50600160008154809291906001019190505550505050565b600260009054906101000a900473ffffffffffffffffffffffffffffffffffffffff1681565b600260009054906101000a900473ffffffffffffffffffffffffffffffffffffffff1673ffffffffffffffffffffffffffffffffffffffff163373ffffffffffffffffffffffffffffffffffffffff16141515610be457600080fd5b8073ffffffffffffffffffffffffffffffffffffffff166108fc3073ffffffffffffffffffffffffffffffffffffffff16319081150290604051600060405180830381858888f193505050501515610c3b57600080fd5b50565b60015481565b600260009054906101000a900473ffffffffffffffffffffffffffffffffffffffff1673ffffffffffffffffffffffffffffffffffffffff163373ffffffffffffffffffffffffffffffffffffffff16141515610ca057600080fd5b6040815111151515610cb157600080fd5b8060039080519060200190610cc792919061102e565b5050565b610cd361101a565b600080610cde61101a565b600080600080600180540381526020019081526020016000206002018054600181600116156101000203166002900480601f016020809104026020016040519081016040528092919081815260200182805460018160011615610100020316600290048015610d8e5780601f10610d6357610100808354040283529160200191610d8e565b820191906000526020600020905b815481529060010190602001808311610d7157829003601f168201915b505050505095506000806001805403815260200190815260200160002060000154945060008060018054038152602001908152602001600020600301549350600080600180540381526020019081526020016000206004018054600181600116156101000203166002900480601f016020809104026020016040519081016040528092919081815260200182805460018160011615610100020316600290048015610e7a5780601f10610e4f57610100808354040283529160200191610e7a565b820191906000526020600020905b815481529060010190602001808311610e5d57829003601f168201915b50505050509250600080600180540381526020019081526020016000206001015491506001549050909192939495565b60038054600181600116156101000203166002900480601f016020809104026020016040519081016040528092919081815260200182805460018160011615610100020316600290048015610f405780601f10610f1557610100808354040283529160200191610f40565b820191906000526020600020905b815481529060010190602001808311610f2357829003601f168201915b505050505081565b600260009054906101000a900473ffffffffffffffffffffffffffffffffffffffff1673ffffffffffffffffffffffffffffffffffffffff163373ffffffffffffffffffffffffffffffffffffffff16141515610fa457600080fd5b60008210158015610fb6575060015482105b1515610fc157600080fd5b60a0815111151515610fd257600080fd5b806000808481526020019081526020016000206004019080519060200190610ffb92919061102e565b5042600080848152602001908152602001600020600101819055505050565b602060405190810160405280600081525090565b828054600181600116156101000203166002900490600052602060002090601f016020900481019282601f1061106f57805160ff191683800117855561109d565b8280016001018555821561109d579182015b8281111561109c578251825591602001919060010190611081565b5b5090506110aa91906110ae565b5090565b6110d091905b808211156110cc5760008160009055506001016110b4565b5090565b905600a165627a7a7230582048a88924f54977b83f35ac208e9fe460c90f50c0a3a409303493a15808acdbe30029",
  "source": "pragma solidity ^0.4.11;\n\ncontract UserAccount {\n\n\tmapping (uint => Post) _posts;\n\tuint public _numberOfPosts;\n\taddress public _adminAddress;\n\tstring public _name;\n\tuint constant MAX_DATA_SIZE = 160;\n\tuint constant MAX_POST_SIZE = 240;\n\tuint constant MAX_NAME_SIZE = 64;\n\n\t// data structure of a single post\n\tstruct Post {\n\t\tuint timestamp;\n\t\tuint lastEdited;\n\t\tstring message;\n\t\tuint dataType;\n\t\tstring data;\n\t}\n\n\tmodifier onlyAdmin {\n\t\trequire(msg.sender == _adminAddress);\n\t\t_;\n\t}\n\n\tfunction UserAccount(string name) public {\n\t\trequire(bytes(name).length <= MAX_NAME_SIZE);\n\t\t_name = name;\n\t\t_numberOfPosts = 0;\n\t\t_adminAddress = msg.sender;\n\t}\n\n\tfunction() public payable { } // for donations :D\n\n\tfunction post(string message, uint dataType, string data) onlyAdmin public {\n\t\trequire(bytes(message).length <= MAX_POST_SIZE);\n\t\trequire(bytes(data).length <= MAX_DATA_SIZE);\n\t\t_posts[_numberOfPosts].lastEdited = now;\n\t\t_posts[_numberOfPosts].timestamp = now;\n\t\t_posts[_numberOfPosts].message = message;\n\t\t_posts[_numberOfPosts].dataType = dataType;\n\t\t_posts[_numberOfPosts].data = data;\n\t\t_numberOfPosts++;\n\t}\n\n  function editPost(uint postId, string data) onlyAdmin public {\n\t\trequire(postId >= 0 && postId < _numberOfPosts);\n\t\trequire(bytes(data).length <= MAX_DATA_SIZE);\n\t\t_posts[postId].data = data;\n\t\t_posts[postId].lastEdited = now;\n\t}\n\n\tfunction editName(string name) onlyAdmin public {\n\t\trequire(bytes(name).length <= MAX_NAME_SIZE);\n\t\t_name = name;\n\t}\n\n\tfunction getPost(uint postId) constant public returns (string message, uint timestamp, uint dataType, string data, uint lastEdited) {\n\t\trequire(postId >= 0 && postId < _numberOfPosts);\n\t\tmessage = _posts[postId].message;\n\t\ttimestamp = _posts[postId].timestamp;\n\t\tdataType = _posts[postId].dataType;\n\t\tdata = _posts[postId].data;\n\t\tlastEdited = _posts[postId].lastEdited;\n\t}\n\n\tfunction getLastPost() constant public returns (string message, uint timestamp, uint dataType, string data, uint lastEdited, uint numberOfPosts) {\n\t\tmessage = _posts[_numberOfPosts - 1].message;\n\t\ttimestamp = _posts[_numberOfPosts - 1].timestamp;\n\t\tdataType = _posts[_numberOfPosts - 1].dataType;\n\t\tdata = _posts[_numberOfPosts - 1].data;\n\t\tlastEdited = _posts[_numberOfPosts - 1].lastEdited;\n\t\tnumberOfPosts = _numberOfPosts;\n\t}\n\n\tfunction getOwnerAddress() constant public returns (address adminAddress) {\n\t\treturn _adminAddress;\n\t}\n\n\tfunction getName() constant public returns (string name) {\n\t\treturn _name;\n\t}\n\n\tfunction getNumberOfPosts() constant public returns (uint numberOfPosts) {\n\t\treturn _numberOfPosts;\n\t}\n\n\tfunction adminRetrieveDonations(address receiver) public onlyAdmin {\n\t\treceiver.transfer(this.balance);\n\t}\n\n\tfunction adminDeleteAccount() public onlyAdmin {\n\t\tselfdestruct(_adminAddress); // this is a predefined function, it deletes the contract and returns all funds to the owner's address\n\t}\n}\n",
  "sourcePath": "/home/ramiro/Git/ethereum-projects/ethereal/contracts/UserAccount.sol",
  "compiler": {
    "name": "solc",
    "version": "0.4.19+commit.c4cbbb05.Emscripten.clang"
  },
  "schemaVersion": "2.0.0",
  "updatedAt": "2018-03-05T02:54:48.609Z"
}