{
  "contractName": "WitnessContract",
  "abi": [
    {
      "constant": true,
      "inputs": [],
      "name": "signed",
      "outputs": [
        {
          "name": "",
          "type": "bool"
        }
      ],
      "payable": false,
      "stateMutability": "view",
      "type": "function"
    },
    {
      "constant": true,
      "inputs": [],
      "name": "owner",
      "outputs": [
        {
          "name": "",
          "type": "address"
        }
      ],
      "payable": false,
      "stateMutability": "view",
      "type": "function"
    },
    {
      "constant": true,
      "inputs": [],
      "name": "terms",
      "outputs": [
        {
          "name": "",
          "type": "string"
        }
      ],
      "payable": false,
      "stateMutability": "view",
      "type": "function"
    },
    {
      "constant": true,
      "inputs": [],
      "name": "contract_name",
      "outputs": [
        {
          "name": "",
          "type": "string"
        }
      ],
      "payable": false,
      "stateMutability": "view",
      "type": "function"
    },
    {
      "constant": false,
      "inputs": [
        {
          "name": "newOwner",
          "type": "address"
        }
      ],
      "name": "transferOwnership",
      "outputs": [],
      "payable": false,
      "stateMutability": "nonpayable",
      "type": "function"
    },
    {
      "inputs": [
        {
          "name": "_contract_name",
          "type": "string"
        },
        {
          "name": "_terms",
          "type": "string"
        }
      ],
      "payable": false,
      "stateMutability": "nonpayable",
      "type": "constructor"
    },
    {
      "anonymous": false,
      "inputs": [
        {
          "indexed": false,
          "name": "_contract",
          "type": "address"
        }
      ],
      "name": "ContractStored",
      "type": "event"
    },
    {
      "anonymous": false,
      "inputs": [
        {
          "components": [
            {
              "name": "id",
              "type": "address"
            },
            {
              "name": "agree",
              "type": "bool"
            }
          ],
          "indexed": false,
          "name": "p",
          "type": "tuple"
        }
      ],
      "name": "ParticipantsAdded",
      "type": "event"
    },
    {
      "anonymous": false,
      "inputs": [
        {
          "indexed": false,
          "name": "_participant",
          "type": "address"
        }
      ],
      "name": "ParticipantAgreed",
      "type": "event"
    },
    {
      "anonymous": false,
      "inputs": [
        {
          "indexed": true,
          "name": "previousOwner",
          "type": "address"
        },
        {
          "indexed": true,
          "name": "newOwner",
          "type": "address"
        }
      ],
      "name": "OwnershipTransferred",
      "type": "event"
    },
    {
      "constant": true,
      "inputs": [],
      "name": "participant1",
      "outputs": [
        {
          "name": "",
          "type": "address"
        }
      ],
      "payable": false,
      "stateMutability": "view",
      "type": "function"
    },
    {
      "constant": true,
      "inputs": [],
      "name": "participant2",
      "outputs": [
        {
          "name": "",
          "type": "address"
        }
      ],
      "payable": false,
      "stateMutability": "view",
      "type": "function"
    },
    {
      "constant": false,
      "inputs": [
        {
          "name": "_participant",
          "type": "address"
        }
      ],
      "name": "storeParticipant",
      "outputs": [],
      "payable": false,
      "stateMutability": "nonpayable",
      "type": "function"
    },
    {
      "constant": false,
      "inputs": [],
      "name": "acceptContract",
      "outputs": [],
      "payable": false,
      "stateMutability": "nonpayable",
      "type": "function"
    },
    {
      "constant": false,
      "inputs": [],
      "name": "signContract",
      "outputs": [],
      "payable": false,
      "stateMutability": "nonpayable",
      "type": "function"
    }
  ],
  "bytecode": "0x6060604052341561000f57600080fd5b604051610fd8380380610fd883398101604052808051820191906020018051820191905050336000806101000a81548173ffffffffffffffffffffffffffffffffffffffff021916908373ffffffffffffffffffffffffffffffffffffffff160217905550816001908051906020019061008a9291906100e9565b50336000806101000a81548173ffffffffffffffffffffffffffffffffffffffff021916908373ffffffffffffffffffffffffffffffffffffffff16021790555080600290805190602001906100e19291906100e9565b50505061018e565b828054600181600116156101000203166002900490600052602060002090601f016020900481019282601f1061012a57805160ff1916838001178555610158565b82800160010185558215610158579182015b8281111561015757825182559160200191906001019061013c565b5b5090506101659190610169565b5090565b61018b91905b8082111561018757600081600090555060010161016f565b5090565b90565b610e3b8061019d6000396000f3006060604052600436106100a4576000357c0100000000000000000000000000000000000000000000000000000000900463ffffffff168063232a6b9d146100a9578063619d2671146100d65780638da5cb5b146100eb578063b8b4f1a014610140578063d502562514610155578063d9479692146101e3578063dc45111c14610271578063e702701f146102c6578063eede216d1461031b578063f2fde38b14610354575b600080fd5b34156100b457600080fd5b6100bc61038d565b604051808215151515815260200191505060405180910390f35b34156100e157600080fd5b6100e96103a0565b005b34156100f657600080fd5b6100fe6105ba565b604051808273ffffffffffffffffffffffffffffffffffffffff1673ffffffffffffffffffffffffffffffffffffffff16815260200191505060405180910390f35b341561014b57600080fd5b6101536105df565b005b341561016057600080fd5b6101686106ed565b6040518080602001828103825283818151815260200191508051906020019080838360005b838110156101a857808201518184015260208101905061018d565b50505050905090810190601f1680156101d55780820380516001836020036101000a031916815260200191505b509250505060405180910390f35b34156101ee57600080fd5b6101f661078b565b6040518080602001828103825283818151815260200191508051906020019080838360005b8381101561023657808201518184015260208101905061021b565b50505050905090810190601f1680156102635780820380516001836020036101000a031916815260200191505b509250505060405180910390f35b341561027c57600080fd5b610284610829565b604051808273ffffffffffffffffffffffffffffffffffffffff1673ffffffffffffffffffffffffffffffffffffffff16815260200191505060405180910390f35b34156102d157600080fd5b6102d961086f565b604051808273ffffffffffffffffffffffffffffffffffffffff1673ffffffffffffffffffffffffffffffffffffffff16815260200191505060405180910390f35b341561032657600080fd5b610352600480803573ffffffffffffffffffffffffffffffffffffffff169060200190919050506108b5565b005b341561035f57600080fd5b61038b600480803573ffffffffffffffffffffffffffffffffffffffff16906020019091905050610c02565b005b600060149054906101000a900460ff1681565b6000809054906101000a900473ffffffffffffffffffffffffffffffffffffffff1673ffffffffffffffffffffffffffffffffffffffff163373ffffffffffffffffffffffffffffffffffffffff16141515156103fc57600080fd5b600460003373ffffffffffffffffffffffffffffffffffffffff1673ffffffffffffffffffffffffffffffffffffffff16815260200190815260200160002060000160009054906101000a900473ffffffffffffffffffffffffffffffffffffffff1673ffffffffffffffffffffffffffffffffffffffff163373ffffffffffffffffffffffffffffffffffffffff1614151561049857600080fd5b6001600460003373ffffffffffffffffffffffffffffffffffffffff1673ffffffffffffffffffffffffffffffffffffffff16815260200190815260200160002060000160146101000a81548160ff0219169083151502179055507f42a6e2f5f3bcd4a9ae24ddc67c2a11cacabb62a2ac31c6f8361928ab98ef191c600460003373ffffffffffffffffffffffffffffffffffffffff1673ffffffffffffffffffffffffffffffffffffffff16815260200190815260200160002060000160009054906101000a900473ffffffffffffffffffffffffffffffffffffffff16604051808273ffffffffffffffffffffffffffffffffffffffff1673ffffffffffffffffffffffffffffffffffffffff16815260200191505060405180910390a1565b6000809054906101000a900473ffffffffffffffffffffffffffffffffffffffff1681565b6000809054906101000a900473ffffffffffffffffffffffffffffffffffffffff1673ffffffffffffffffffffffffffffffffffffffff163373ffffffffffffffffffffffffffffffffffffffff1614151561063a57600080fd5b6002600380549050148015610662575060001515600060149054906101000a900460ff161515145b151561066d57600080fd5b6001600060146101000a81548160ff0219169083151502179055507f074ce4cfa27d6cb615cc1d2927af47c515bfb9a3d3b13490ec210000100cfd0b30604051808273ffffffffffffffffffffffffffffffffffffffff1673ffffffffffffffffffffffffffffffffffffffff16815260200191505060405180910390a1565b60028054600181600116156101000203166002900480601f0160208091040260200160405190810160405280929190818152602001828054600181600116156101000203166002900480156107835780601f1061075857610100808354040283529160200191610783565b820191906000526020600020905b81548152906001019060200180831161076657829003601f168201915b505050505081565b60018054600181600116156101000203166002900480601f0160208091040260200160405190810160405280929190818152602001828054600181600116156101000203166002900480156108215780601f106107f657610100808354040283529160200191610821565b820191906000526020600020905b81548152906001019060200180831161080457829003601f168201915b505050505081565b60006003600181548110151561083b57fe5b906000526020600020900160000160009054906101000a900473ffffffffffffffffffffffffffffffffffffffff16905090565b60006003600081548110151561088157fe5b906000526020600020900160000160009054906101000a900473ffffffffffffffffffffffffffffffffffffffff16905090565b6108bd610d57565b6000809054906101000a900473ffffffffffffffffffffffffffffffffffffffff1673ffffffffffffffffffffffffffffffffffffffff163373ffffffffffffffffffffffffffffffffffffffff1614151561091857600080fd5b600073ffffffffffffffffffffffffffffffffffffffff168273ffffffffffffffffffffffffffffffffffffffff16141580156109e35750600073ffffffffffffffffffffffffffffffffffffffff16600460008473ffffffffffffffffffffffffffffffffffffffff1673ffffffffffffffffffffffffffffffffffffffff16815260200190815260200160002060000160009054906101000a900473ffffffffffffffffffffffffffffffffffffffff1673ffffffffffffffffffffffffffffffffffffffff16145b8015610a3c57506000809054906101000a900473ffffffffffffffffffffffffffffffffffffffff1673ffffffffffffffffffffffffffffffffffffffff168273ffffffffffffffffffffffffffffffffffffffff1614155b8015610a4d57506002600380549050105b1515610a5857600080fd5b60408051908101604052808373ffffffffffffffffffffffffffffffffffffffff1681526020016000151581525090508060046000836000015173ffffffffffffffffffffffffffffffffffffffff1673ffffffffffffffffffffffffffffffffffffffff16815260200190815260200160002060008201518160000160006101000a81548173ffffffffffffffffffffffffffffffffffffffff021916908373ffffffffffffffffffffffffffffffffffffffff16021790555060208201518160000160146101000a81548160ff02191690831515021790555090505060038054806001018281610b4a9190610d89565b9160005260206000209001600083909190915060008201518160000160006101000a81548173ffffffffffffffffffffffffffffffffffffffff021916908373ffffffffffffffffffffffffffffffffffffffff16021790555060208201518160000160146101000a81548160ff0219169083151502179055505050507feba18244553167c5f01a5d95322f6155c91b841723677e9d18a376b6be8b4bd9816040518082815260200191505060405180910390a15050565b6000809054906101000a900473ffffffffffffffffffffffffffffffffffffffff1673ffffffffffffffffffffffffffffffffffffffff163373ffffffffffffffffffffffffffffffffffffffff16141515610c5d57600080fd5b600073ffffffffffffffffffffffffffffffffffffffff168173ffffffffffffffffffffffffffffffffffffffff1614151515610c9957600080fd5b8073ffffffffffffffffffffffffffffffffffffffff166000809054906101000a900473ffffffffffffffffffffffffffffffffffffffff1673ffffffffffffffffffffffffffffffffffffffff167f8be0079c531659141344cd1fd0a4f28419497f9722a3daafe3b4186f6b6457e060405160405180910390a3806000806101000a81548173ffffffffffffffffffffffffffffffffffffffff021916908373ffffffffffffffffffffffffffffffffffffffff16021790555050565b6040805190810160405280600073ffffffffffffffffffffffffffffffffffffffff1681526020016000151581525090565b815481835581811511610db057818360005260206000209182019101610daf9190610db5565b5b505050565b610e0c91905b80821115610e0857600080820160006101000a81549073ffffffffffffffffffffffffffffffffffffffff02191690556000820160146101000a81549060ff021916905550600101610dbb565b5090565b905600a165627a7a7230582083a8cc6543f0db1b5013ea008197cb1d05c3b2ffaf664ad06d78b7f50a5954990029",
  "source": "pragma solidity ^0.4.17;\n\nimport \"zeppelin-solidity/contracts/ownership/Ownable.sol\";\n\ncontract WitnessContract is Ownable {\n\n    struct Participant {\n        address id;\n        bool agree;\n    }\n\n    bool public signed;\n    string public contract_name;\n    string public terms;\n    Participant[] participants;\n\n    event ContractStored(address _contract);\n    event ParticipantsAdded(Participant p);\n    event ParticipantAgreed(address _participant);\n\n    mapping(address => Participant) _participants;\n\n    modifier notOwner() {\n        require(msg.sender != owner);\n        _;\n    }\n\n    function WitnessContract(string _contract_name, string _terms)\n        public\n    {\n        contract_name = _contract_name;\n        owner = msg.sender;\n        terms = _terms;\n    }\n\n    function participant1() public view returns (address) {\n        return participants[0].id;\n    }\n\n    function participant2() public view returns (address) {\n        return participants[1].id;\n    }\n\n\n    function storeParticipant(address _participant) public onlyOwner {\n        // Contract creator can't participate\n        require(\n            _participant != address(0) &&\n            _participants[_participant].id == address(0) &&\n            _participant != owner &&\n            participants.length < 2\n        );\n\n        Participant memory p = Participant({id: _participant, agree: false});\n        _participants[p.id] = p;\n        participants.push(p);\n\n        ParticipantsAdded(p);\n    }\n\n    function acceptContract() public notOwner {\n        // Only participants can accept\n        require(msg.sender == _participants[msg.sender].id);\n\n        _participants[msg.sender].agree = true;\n\n        ParticipantAgreed(_participants[msg.sender].id);\n    }\n\n    function signContract() public onlyOwner {\n        require(\n            participants.length == 2 &&\n            signed == false\n        );\n\n        signed = true;\n        ContractStored(address(this));\n    }\n}\n\n",
  "sourcePath": "/home/ramiro/ethereal/contracts/WitnessContract.sol",
  "compiler": {
    "name": "solc",
    "version": "0.4.19+commit.c4cbbb05.Emscripten.clang"
  },
  "schemaVersion": "2.0.0",
  "updatedAt": "2018-03-01T02:48:00.772Z"
}